:020000040800F2
:1000000000100020C9150008391500083B1500082C
:1000100000000000000000000000000000000000E0
:100020000000000000000000000000003D15000876
:1000300000000000000000003F1500084115000806
:10004000191600080000000019160008191600080B
:1000500019160008191600081916000819160008C4
:1000600000000000491500081916000819160008BC
:10007000591500081916000819160008000000009C
:100080001916000800000000000000001916000802
:1000900000000000191600081916000819160008BB
:1000A00000000000191600080000000019160008E2
:1000B0000000000000000000000000000000000040
:1000C00010B5064C2378002B07D1054B002B02D02E
:1000D000044800E000BF0123237010BD040000208D
:1000E0000000000074160008044B10B5002B03D06C
:1000F0000349044800E000BF10BDC04600000000F6
:100100000800002074160008002243088B4274D3B4
:1001100003098B425FD3030A8B4244D3030B8B4208
:1001200028D3030C8B420DD3FF22090212BA030C11
:100130008B4202D31212090265D0030B8B4219D3F2
:1001400000E0090AC30B8B4201D3CB03C01A524112
:10015000830B8B4201D38B03C01A5241430B8B425A
:1001600001D34B03C01A5241030B8B4201D30B0343
:10017000C01A5241C30A8B4201D3CB02C01A52416A
:10018000830A8B4201D38B02C01A5241430A8B422D
:1001900001D34B02C01A5241030A8B4201D30B0216
:1001A000C01A5241CDD2C3098B4201D3CB01C01A30
:1001B000524183098B4201D38B01C01A524143093A
:1001C0008B4201D34B01C01A524103098B4201D328
:1001D0000B01C01A5241C3088B4201D3CB00C01A95
:1001E000524183088B4201D38B00C01A524143080D
:1001F0008B4201D34B00C01A5241411A00D2014632
:10020000524110467047FFE701B5002000F006F8A4
:1002100002BDC0460029F7D076E770477047C04658
:1002200010B5040001F062F8FA218900FFF76CFFB5
:1002300000F088FB012000222100404200F048FB32
:10024000002010BD10B5064A136810210B4313603F
:100250000020FFF7E5FF01F003F9002010BDC046C4
:1002600000200240024A1368013313607047C04601
:1002700020000020014B18687047C0462000002075
:1002800030B583B00190FFF7F5FF0500019C631CBA
:1002900000D00134FFF7EEFF401BA042FAD303B0B9
:1002A00030BD000030B583B0040000230193036823
:1002B000996803220A40012A0ED09968204A114207
:1002C00012D19A6801210A439A601E4B18681E4990
:1002D000FFF71AFF019015E01A68D2072DD4DA68EB
:1002E0001204EAD5002008E0636C10221343636413
:1002F000A36C0F3A1343A364012003B030BD019BEC
:10030000013B0193019B002BF9D1FFF7B3FF0500DF
:1003100023681B68DB070ED4FFF7ACFF401B0228E5
:10032000F6D9636C102213436364A36C0F3A134332
:10033000A3640120E1E70020DFE70020DDE7C046FD
:10034000170000800000002040420F0070B5041E1E
:1003500000D1B0E0436C002B7DD0636CDB0600D590
:10036000A3E021688B6804221A4000D09DE0636CF2
:10037000524803400630FF30034363648868032318
:100380000340012B6DD0CB6818208343A068034342
:10039000CB6021680B699B009B08606803430B617D
:1003A0002168CB6846480340CB60A3699B03E169A1
:1003B000C9030B43216A48030343606B012857D0EC
:1003C000802040010343E06803432069022851D0A4
:1003D0001343226B52001343626A012A4CD0A26A73
:1003E000C221FF318A4202D0E16A0A4313432168E5
:1003F000CA681A43CA60A26B802149058A420DD09F
:10040000012A0BD0022A09D0032A07D0042A05D0DA
:10041000052A03D0062A01D0072A0AD1206841699B
:1004200007229143416120684169A56B2A400A4334
:1004300042612268D26823490A409A422BD0636CF9
:1004400012229343023A13436364A36C0F3A13439B
:10045000A36401202EE083644022835401F018F845
:100460007BE70B68DB079BD4CB681B0498D48AE737
:100470001000A7E70422ABE7002903D18022520233
:100480001343ACE7626C20210A436264A26C1F39FB
:100490000A43A264A3E70023A364636C032293438B
:1004A000023A13436364002004E0636C1022134398
:1004B0006364012070BD0120FCE7C046FDFEFFFF24
:1004C0001902FEFFE7FF3F83F8B504000E00170096
:1004D00003689B685B073ED44023C35C012B3CD080
:1004E00040230122C254C369012B32D0FFF7DAFE48
:1004F000051E2CD1636C1A4A1A4080235B001343FB
:1005000063640023A3644022A354E36B154A9A62F8
:10051000E36B154ADA62E36B144A1A6323681C2200
:100520001A602268536810210B4353602268D36815
:100530000F390B43D360216840313B003200E06B40
:1005400000F072FA2268936804210B43936028003C
:10055000F8BD0025CEE70225F9E70225F7E7C046FA
:10056000FEF0FFFF75050008E7050008F505000827
:100570007047000010B5436A5A6C5021114203D0F5
:10058000DB6B1B6B984710BD596C802292000A43AD
:100590005A641A68D068C0210901084213D1196A47
:1005A000002910D1116809070DD5916849070ED4AB
:1005B00051680C20814351605A6C09490A4004314A
:1005C000FF310A435A641800FFF7D2FFDBE75A6C89
:1005D00020210A435A649A6C1F390A439A64F2E74D
:1005E000FEFEFFFF704710B5406AFFF7FBFF10BD2E
:1005F0007047704710B5406A436C40221343436410
:10060000836C3C3A13438364FFF7F3FF10BD000093
:1006100010B5040003681A68520702D55A685207D9
:1006200005D41A68120729D55A68120726D5626CB4
:10063000D20604D4616C802292000A436264D968B5
:10064000C0221201114213D1226A002A10D11A6865
:1006500012070DD59A68520731D45A680C218A4383
:100660005A60636C204A13400432FF3213436364C0
:100670002000FFF77DFF23680C221A6023681A68A8
:10068000120602D55B681B0622D423681A68D206BC
:1006900014D55A68D20611D5626B012A02D0DA68E5
:1006A000D20708D5A26C02210A43A26410221A6064
:1006B0002000FFF79EFF236810221A6010BD636CB4
:1006C000202213436364A36C1F3A1343A364CFE750
:1006D000626C80235B02134363642000FFF788FF92
:1006E000236880221A60D0E7FEFEFFFF30B583B09A
:1006F0000400002301934033C35C012B00D181E04F
:1007000040230122C25403689A68520770D43E4ABB
:100710004868904253D09A6A01200D68A84002436D
:100720009A62A36B8022520593421ED0012B1CD0EB
:10073000022B1AD0032B18D0042B16D0052B14D063
:10074000062B12D0072B10D02268506907230340D4
:100750008868984209D050690723984350612068FF
:1007600042698D682B40134343610B681A00103AAD
:10077000012A01D9002040E0244A1268102B09D038
:100780008023DB031343214A13600B68102B04D032
:10079000002032E080231B04F4E71D4B18681D493C
:1007A000FFF7B2FC830018184300019302E0019B9D
:1007B000013B0193019B002BF9D100201DE09A6AB7
:1007C00001200D68A84082439A620B681A00103A13
:1007D000012A01D9002010E00C4A1268102B05D024
:1007E0000D4B1340094A1360002006E00B4BF8E75D
:1007F000436C202213434364012040230022E2542F
:1008000003B030BD0220FBE70110000008270140C3
:100810000000002040420F00FFFFBFFFFFFF7FFFEF
:1008200070B504004023C35C012B4CD0402301224F
:10083000C2540368996802320A40012A05D11A6835
:10084000D20737D4DA68120434D4626C1F490A40E4
:100850000631FF310A436264DE6801310E40DA6816
:100860008A43DA602268916880231B060B439360F9
:10087000FFF700FD050023689A68002A0FDAFFF7EA
:10088000F9FC401B0228F6D9636C12229343023A0A
:100890001343636440230022E254012012E0DA682B
:1008A0001643DE60636C03229343023A134363648E
:1008B000002004E0636C2022134363640120402382
:1008C0000022E25470BD0220FCE7C046FDFEFFFF9F
:1008D00070B5002811DB8408134DC034A4006259A0
:1008E00003231840C000FC331E008640B243890138
:1008F0000B4083401343635170BDC0B20F220240CE
:10090000083A920806329200084BD3185D68032417
:100910002040C000FF2214008440A54389010A4002
:1009200082402A435A60E7E700E100E000ED00E082
:100930001F2318401E3B8340014A13607047C04686
:1009400000E100E001380A4B98420FD8094A506094
:100950000948036A1B021B0AC02109060B430362F4
:100960000023936007331360002070470120FCE7E9
:10097000FFFFFF0010E000E000ED00E070B5C56B88
:100980000124066CB4406C60046863604368102BFB
:1009900004D0036899600368DA6070BD03689A60E8
:1009A0000368D960F9E7000010B504000368064A3F
:1009B0009446634418001421FFF7A6FB80002064CE
:1009C000024BE36310BDC046F8FFFDBF00000240CC
:1009D00070B5041E24D021250223435501680B68FD
:1009E000104A1A40436880680343E0680343206963
:1009F000034360690343A0690343E069034313436E
:100A00000B602000FFF7D0FF0023A362E3622363A3
:100A10006363A363012262551F32A354002070BD9B
:100A20000120FCE70FC0FFFF70B504002020205C10
:100A3000012832D02020012525540130205C0128D6
:100A400004D020230022E254022070BD2030013562
:100A500025540020A063256828680126B04328603B
:100A60002000FFF78BFFE36A002B0BD0226813688E
:100A70000E210B4313602268136801210B4313609E
:100A80000020E2E7226813680A210B431360226802
:100A9000136806398B431360EDE70220D5E770B584
:100AA000C36B1A6804682568016C04238B401A42E2
:100AB00012D06B0710D523689B0603D42368042249
:100AC00093432360C26B0423016C8B405360C36A61
:100AD000002B00D0984770BD02238B401A4218D0DB
:100AE000AB0716D523689B0606D423680A229343D6
:100AF00023602123093AC254C26B0223016C8B404C
:100B0000536020230022C254836A002BE3D098470D
:100B1000E1E708238B401A42DDD02B07DBD52368A1
:100B20000E2293432360C26B01231900046CA14081
:100B300051608363212283541F330022C254036B0C
:100B4000002BC8D09847C6E7F0B5C64600B582B0BE
:100B5000002338E0032600E00026AE4035003D4388
:100B60000234A400554EA551554C25684246D44345
:100B70002E0026404A68D20302D5424615432E0075
:100B80004F4D2E606D682E0026404A68920302D5B4
:100B9000424615432E004A4D6E60AD682E00264039
:100BA0004A68D20202D5424615432E00444DAE603B
:100BB000ED682C404A68920202D542462A4314004E
:100BC0003F4AD46001330A681400DC4071D001252B
:100BD0009D402A409046F5D04C68022C01D0122C42
:100BE0000ED1DC080834A400275807261E40B600A2
:100BF0000F22B24097430A69B24016003E43265086
:100C000002685F0003242600BE40F643324094464B
:100C10004A681440BC406246144304604C68621E3B
:100C2000012A03D9112C01D0122C10D18468344030
:100C3000A446CC68BC406246144384604468AC431C
:100C40004A681209012515409D4025434560C46846
:100C500026408C68BC403443C4604A68D200B1D599
:100C6000184DAE6901242643AE61AD692C40019454
:100C7000019C9C08A51CAD00104EAF5903251D40DA
:100C8000AD000F26AE40B7439026F605B04200D126
:100C900062E70D4EB04208D00C4EB04207D00C4E69
:100CA000B04200D156E7052657E7012655E7022650
:100CB00053E702B004BC9046F0BDC04600000140BE
:100CC00000040140001002400004004800080048F1
:100CD000000C004870B582B004000368DB0726D51D
:100CE000AE4B5A680C231340042B18D0AB4B5A68F8
:100CF0000C231340082B0ED06368012B3CD0002B33
:100D000051D1A64B1A68A6490A401A601A68A5492B
:100D10000A401A6036E0A14B5B68DB03ECD59F4BC1
:100D20001B689B0303D56368002B00D1ECE12368AB
:100D30009B0773D5994B5B680C221A425DD0974B89
:100D40005A680C231340082B53D0E368002B00D1C2
:100D500086E0924A136801210B431360FFF78AFA79
:100D600005008E4B1B689B0771D4FFF783FA401B6D
:100D70000228F6D90320CAE1884A116880235B0261
:100D80000B4313606368002B25D0FFF773FA05004F
:100D9000824B1B689B03CAD4FFF76CFA401B642884
:100DA000F6D90320B3E1052B09D07C4B1A687C49A6
:100DB0000A401A601A687B490A401A60E2E7774BDA
:100DC00019688022D2020A431A60196880225202EE
:100DD0000A431A60D6E7FFF74DFA05006F4B1B6810
:100DE0009B03A4D5FFF746FA401B6428F6D90320DD
:100DF0008DE16A4B5B68DB03A7D4684B1B689B07DC
:100E000004D5E368012B01D0012080E163490B6820
:100E1000F82293432269D20013430B6023681B0717
:100E200044D5E369002B2ED05C4A536A01210B4361
:100E30005362FFF71FFA0500584B5B6A9B0735D4D6
:100E4000FFF718FA401B0228F6D903205FE1534947
:100E50000B68F82293432269D20013430B60DDE74D
:100E60004E4A136801218B431360FFF703FA050014
:100E70004A4B1B689B07D1D5FFF7FCF9401B0228A2
:100E8000F6D9032043E1454A536A01218B4353625B
:100E9000FFF7F0F90500414B5B6A9B0706D5FFF7AA
:100EA000E9F9401B0228F6D9032030E123685B07EB
:100EB00000D47FE0394BDB69DB001DD4374AD169B0
:100EC000802040050143D161D36903400193019B18
:100ED0000125354B1B68DB0510D5A368012B21D0FC
:100EE000002B36D12D4B1A6A01218A431A621A6AE5
:100EF00003318A431A621AE00025EAE72A4A116898
:100F000080235B000B431360FFF7B4F90600264B08
:100F10001B68DB05E1D4FFF7ADF9801B6428F6D927
:100F20000320F4E01D4A136A01210B431362A368F6
:100F3000002B24D0FFF79EF90600184B1B6A9B0775
:100F400036D4FFF797F9801B184B9842F5D9032048
:100F5000DDE0052B09D0114B1A6A01218A431A6280
:100F60001A6A03318A431A62E1E70C4B1A6A0421B8
:100F70000A431A621A6A03390A431A62D7E7FFF76B
:100F800079F90600054B1B6A9B0711D5FFF772F92B
:100F9000801B064B9842F5D90320B8E000100240B0
:100FA000FFFFFEFFFFFFFBFF007000408813000003
:100FB000012D33D02368DB0610D56369012B33D0B4
:100FC000053351D1544A536B04218B435363536B04
:100FD000F4318B43A169C9000B435363236A002B8F
:100FE00000D193E04C4A51680C220A40082A00D1F3
:100FF0008FE0022B4FD0484A136848490B401360DA
:10100000FFF738F90400444B1B689B017AD5FFF7C2
:1010100031F9001B0228F6D9032078E03E4AD36953
:101020003F490B40D361C5E73B4B5A6B04210A4350
:101030005A635A6B03390A435A63FFF71BF90500D9
:10104000354B5B6B9B0706D4FFF714F9401B022856
:10105000F6D903205BE030494B6BF8229343A26939
:10106000D20013434B63B9E72B4B5A6B04210A435D
:101070005A635A6B03398A435A63FFF7FBF805003A
:10108000254B5B6B9B07A9D5FFF7F4F8401B0228A3
:10109000F6D903203BE0204A136820490B40136037
:1010A000FFF7E8F805001C4B1B689B0106D5FFF70E
:1010B000E1F8401B0228F6D9032028E0164BDA6A33
:1010C0000F218A43E16A0A43DA625A6815490A40E5
:1010D000A16A606A01430A435A6019688022520477
:1010E0000A431A60FFF7C6F804000B4B1B689B010C
:1010F00006D4FFF7BFF8001B0228F6D9032006E04C
:10110000002004E0002002E0012000E0002002B006
:1011100070BD0120FBE7C04600100240FFFFFFFE4C
:10112000FFFFFFEFFFFFC2FF30B589B004AA174BE6
:10113000180032C832C2110002680A606A461033D1
:1011400013CB13C21B681360114B5A680C23134056
:10115000082B19D1910C0733194004A8445C0C49A1
:10116000C96A0B406946C95CD30308D463011B1BE1
:101170009801C01AC0000419200209B030BD05480A
:10118000FEF7C2FF6043F8E70248F6E78C16000856
:101190000010024000127A0070B505000C004D4BA3
:1011A0001A68012313408B420BD24A490B68012273
:1011B000934323430B600B681A40A24201D00120E5
:1011C00070BD2B689B0706D5434A5368F0218B43BB
:1011D000A9680B4353602B68DB074BD56B68012B69
:1011E00020D0022B24D03C4A126892076FD53A498E
:1011F0004A680320824313434B60FFF73BF8060025
:101200006B68012B1AD0022B26D0334B5B680C2263
:101210001A422FD0FFF72EF8801B304B9842F4D99A
:101220000320CDE72C4A12689203E0D40120C7E7DF
:10123000294A12689201DAD40120C1E7264B5A6884
:101240000C231340042B15D0FFF714F8801B234BFD
:101250009842F3D90320B3E71F4B5A680C2313407D
:10126000082B07D0FFF706F8801B1C4B9842F3D9D8
:101270000320A5E7174B1A6801231340A3420BD99B
:1012800014490B680122934323430B600B681A40F7
:10129000A24201D0012093E72B685B0706D50E4AD6
:1012A00053680F490B40E9680B435360FFF73CFF5D
:1012B000094B5A6812090F2313400A4AD35CD840DD
:1012C000094B18600020FEF7ABFF002078E70120F3
:1012D00076E7C0460020024000100240881300005C
:1012E000FFF8FFFFAC16000800000020014B186853
:1012F0007047C0460000002082B0064A5169802035
:10130000800201435161536903400193019B02B084
:101310007047C0460010024000B583B0094A5169C9
:10132000012319435161526913400193019B00222B
:1013300000210920FFF7CCFA0920FFF7F9FA03B0E2
:1013400000BDC0460010024070B584B00C220021E0
:1013500001A800F087F91E4C1E4B23608023DB059B
:1013600063600023A360E3600122226104266661BA
:10137000A361E36122626362C221FF31A162E36281
:10138000226363632000FEF7E1FF022301938023C1
:101390005B0102930625039501A92000FFF7A6F93A
:1013A0000323019301A92000FFF7A0F9019601A9E9
:1013B0002000FFF79BF90523019301A92000FFF707
:1013C00095F9019501A92000FFF790F904B070BDCF
:1013D0007C0000200024014000B591B02C220021A7
:1013E00005A800F03FF910220021684600F03AF904
:1013F00002230493013B07930F33089304A8FFF7DC
:1014000069FC0723009300230193029303930021B7
:101410006846FFF7C1FE11B000BD000010B5FEF731
:1014200011FFFFF7D9FFFFF767FFFFF775FFFFF722
:101430008BFF084C2000FEF789FF2000FFF7F0F932
:10144000052205492000FFF73FF80120FEF718FFAD
:10145000FBE7C0467C00002024000020704700000D
:1014600082B00A4B996901221143996199690A4036
:101470000092009ADA69802149050A43DA61DB6942
:101480000B400193019B02B07047C0460010024020
:1014900030B589B004001422002103A800F0E2F85E
:1014A000214B22689A4201D009B030BD1F4B9A6986
:1014B0008025AD002A439A619A692A400192019AD7
:1014C0005A69802189020A435A615B690B40029381
:1014D000029B7C230393793B0493902003A9C005CE
:1014E000FFF732FB1248134B036000234360836015
:1014F0008022C26005618022120142612022826145
:10150000C361FFF765FA00280BD1094BE3635C6206
:10151000002200210C20FFF7DBF90C20FFF708FA6E
:10152000C2E7FFF79BFFF0E70024014000100240F4
:1015300038000020080002407047FEE770477047FF
:1015400010B5FEF78FFE10BD10B50248FFF7A7FAE1
:1015500010BDC0463800002010B50248FFF758F80B
:1015600010BDC0467C000020114B1A6801210A43BF
:101570001A605A680F4802405A601A680E480240C2
:101580001A601A680D4802401A605A680C480240F6
:101590005A60DA6A0F208243DA621A6B0948024005
:1015A0001A635A6B8A435A6300229A607047C04696
:1015B000001002400CB8FF08FFFFF6FEFFFFFBFF24
:1015C000FFFFC0FFECFEFFFF0D4885460D480E49AA
:1015D0000E4A002302E0D458C4500433C4188C428D
:1015E000F9D30B4A0B4C002301E013600432A242F2
:1015F000FBD3FFF7B9FF00F011F8FFF70FFFFEE78D
:10160000001000200000002004000020CC1600087C
:1016100004000020C8000020FEE7000070B500268E
:101620000C4D0D4C641BA410A64209D1002600F0FD
:1016300021F80A4D0A4C641BA410A64205D170BDC6
:10164000B300EB5898470136EEE7B300EB589847E4
:101650000136F2E7C4160008C4160008C4160008D4
:10166000C816000803001218934200D17047197081
:101670000133F9E7F8B5C046F8BC08BC9E46704790
:0C168000F8B5C046F8BC08BC9E46704798
:10168C0002030405060708090A0B0C0D0E0F1010B7
:10169C000102030405060708090A0B0C0D0E0F10B6
:1016AC000000000000000000010203040607080906
:0816BC0000000000010203041C
:0416C400E900000831
:0416C800C100000855
:0416CC0000127A008E
:04000005080015C911
:00000001FF
